{
  "contractName": "Remittance",
  "abi": [
    {
      "constant": true,
      "inputs": [],
      "name": "isRunning",
      "outputs": [
        {
          "name": "",
          "type": "bool"
        }
      ],
      "payable": false,
      "stateMutability": "view",
      "type": "function"
    },
    {
      "constant": true,
      "inputs": [],
      "name": "owner",
      "outputs": [
        {
          "name": "",
          "type": "address"
        }
      ],
      "payable": false,
      "stateMutability": "view",
      "type": "function"
    },
    {
      "constant": true,
      "inputs": [
        {
          "name": "",
          "type": "bytes32"
        }
      ],
      "name": "remittances",
      "outputs": [
        {
          "name": "contractOwner",
          "type": "address"
        },
        {
          "name": "recipient",
          "type": "address"
        },
        {
          "name": "exchage",
          "type": "address"
        },
        {
          "name": "amount",
          "type": "uint256"
        },
        {
          "name": "endTime",
          "type": "uint256"
        },
        {
          "name": "claimed",
          "type": "bool"
        }
      ],
      "payable": false,
      "stateMutability": "view",
      "type": "function"
    },
    {
      "inputs": [],
      "payable": false,
      "stateMutability": "nonpayable",
      "type": "constructor"
    },
    {
      "payable": false,
      "stateMutability": "nonpayable",
      "type": "fallback"
    },
    {
      "anonymous": false,
      "inputs": [
        {
          "indexed": true,
          "name": "contractOwner",
          "type": "address"
        },
        {
          "indexed": true,
          "name": "recipient",
          "type": "address"
        },
        {
          "indexed": false,
          "name": "exchage",
          "type": "address"
        },
        {
          "indexed": true,
          "name": "deadline",
          "type": "uint256"
        },
        {
          "indexed": false,
          "name": "amount",
          "type": "uint256"
        }
      ],
      "name": "LogContractCreated",
      "type": "event"
    },
    {
      "anonymous": false,
      "inputs": [
        {
          "indexed": true,
          "name": "contractOwner",
          "type": "address"
        },
        {
          "indexed": true,
          "name": "recipient",
          "type": "address"
        },
        {
          "indexed": true,
          "name": "exchage",
          "type": "address"
        },
        {
          "indexed": false,
          "name": "amount",
          "type": "uint256"
        }
      ],
      "name": "LogClaimed",
      "type": "event"
    },
    {
      "anonymous": false,
      "inputs": [
        {
          "indexed": true,
          "name": "contractOwner",
          "type": "address"
        },
        {
          "indexed": true,
          "name": "recipient",
          "type": "address"
        },
        {
          "indexed": false,
          "name": "exchage",
          "type": "address"
        },
        {
          "indexed": false,
          "name": "amount",
          "type": "uint256"
        }
      ],
      "name": "LogReclaimed",
      "type": "event"
    },
    {
      "anonymous": false,
      "inputs": [],
      "name": "LogPaused",
      "type": "event"
    },
    {
      "anonymous": false,
      "inputs": [],
      "name": "LogResumed",
      "type": "event"
    },
    {
      "constant": false,
      "inputs": [
        {
          "name": "_puzzle",
          "type": "string"
        },
        {
          "name": "_recipient",
          "type": "address"
        },
        {
          "name": "_exchange",
          "type": "address"
        },
        {
          "name": "_deadline",
          "type": "uint256"
        }
      ],
      "name": "createContract",
      "outputs": [
        {
          "name": "",
          "type": "bool"
        }
      ],
      "payable": true,
      "stateMutability": "payable",
      "type": "function"
    },
    {
      "constant": false,
      "inputs": [
        {
          "name": "_recipienPassword",
          "type": "bytes32"
        },
        {
          "name": "_exchangePassword",
          "type": "bytes32"
        }
      ],
      "name": "claim",
      "outputs": [
        {
          "name": "",
          "type": "bool"
        }
      ],
      "payable": false,
      "stateMutability": "nonpayable",
      "type": "function"
    },
    {
      "constant": false,
      "inputs": [
        {
          "name": "_puzzle",
          "type": "string"
        },
        {
          "name": "_recipient",
          "type": "address"
        },
        {
          "name": "_exchange",
          "type": "address"
        }
      ],
      "name": "reclaim",
      "outputs": [
        {
          "name": "",
          "type": "bool"
        }
      ],
      "payable": false,
      "stateMutability": "nonpayable",
      "type": "function"
    },
    {
      "constant": false,
      "inputs": [],
      "name": "pause",
      "outputs": [
        {
          "name": "",
          "type": "bool"
        }
      ],
      "payable": false,
      "stateMutability": "nonpayable",
      "type": "function"
    },
    {
      "constant": false,
      "inputs": [],
      "name": "resume",
      "outputs": [
        {
          "name": "",
          "type": "bool"
        }
      ],
      "payable": false,
      "stateMutability": "nonpayable",
      "type": "function"
    }
  ],
  "bytecode": "0x6060604052341561000f57600080fd5b336000806101000a81548173ffffffffffffffffffffffffffffffffffffffff021916908373ffffffffffffffffffffffffffffffffffffffff16021790555060008060146101000a81548160ff021916908315150217905550611146806100786000396000f30060606040526004361061008e576000357c0100000000000000000000000000000000000000000000000000000000900463ffffffff1680630353b4851461009b578063046f7da21461014c5780632014e5d114610179578063529e89bf146101a65780638456cb591461025957806384cc9dfb146102865780638da5cb5b146102d25780639c922d2a14610327575b341561009957600080fd5b005b610132600480803590602001908201803590602001908080601f0160208091040260200160405190810160405280939291908181526020018383808284378201915050505050509190803573ffffffffffffffffffffffffffffffffffffffff1690602001909190803573ffffffffffffffffffffffffffffffffffffffff1690602001909190803590602001909190505061040d565b604051808215151515815260200191505060405180910390f35b341561015757600080fd5b61015f61088c565b604051808215151515815260200191505060405180910390f35b341561018457600080fd5b61018c610932565b604051808215151515815260200191505060405180910390f35b34156101b157600080fd5b61023f600480803590602001908201803590602001908080601f0160208091040260200160405190810160405280939291908181526020018383808284378201915050505050509190803573ffffffffffffffffffffffffffffffffffffffff1690602001909190803573ffffffffffffffffffffffffffffffffffffffff16906020019091905050610945565b604051808215151515815260200191505060405180910390f35b341561026457600080fd5b61026c610d74565b604051808215151515815260200191505060405180910390f35b341561029157600080fd5b6102b860048080356000191690602001909190803560001916906020019091905050610e34565b604051808215151515815260200191505060405180910390f35b34156102dd57600080fd5b6102e561104c565b604051808273ffffffffffffffffffffffffffffffffffffffff1673ffffffffffffffffffffffffffffffffffffffff16815260200191505060405180910390f35b341561033257600080fd5b61034c600480803560001916906020019091905050611071565b604051808773ffffffffffffffffffffffffffffffffffffffff1673ffffffffffffffffffffffffffffffffffffffff1681526020018673ffffffffffffffffffffffffffffffffffffffff1673ffffffffffffffffffffffffffffffffffffffff1681526020018573ffffffffffffffffffffffffffffffffffffffff1673ffffffffffffffffffffffffffffffffffffffff16815260200184815260200183815260200182151515158152602001965050505050505060405180910390f35b600080600080600060149054906101000a900460ff16151561042e57600080fd5b60003411151561043d57600080fd5b600073ffffffffffffffffffffffffffffffffffffffff168773ffffffffffffffffffffffffffffffffffffffff161415151561047957600080fd5b600073ffffffffffffffffffffffffffffffffffffffff168673ffffffffffffffffffffffffffffffffffffffff16141515156104b557600080fd5b620f423f85111515156104c757600080fd5b87876040518083805190602001908083835b6020831015156104fe57805182526020820191506020810190506020830392506104d9565b6001836020036101000a0380198251168184511680821785525050505050509050018273ffffffffffffffffffffffffffffffffffffffff1673ffffffffffffffffffffffffffffffffffffffff166c01000000000000000000000000028152601401925050506040518091039020925087866040518083805190602001908083835b6020831015156105a65780518252602082019150602081019050602083039250610581565b6001836020036101000a0380198251168184511680821785525050505050509050018273ffffffffffffffffffffffffffffffffffffffff1673ffffffffffffffffffffffffffffffffffffffff166c01000000000000000000000000028152601401925050506040518091039020915082826040518083600019166000191681526020018260001916600019168152602001925050506040518091039020905060c0604051908101604052803373ffffffffffffffffffffffffffffffffffffffff1681526020018873ffffffffffffffffffffffffffffffffffffffff1681526020018773ffffffffffffffffffffffffffffffffffffffff16815260200134815260200143870181526020016000151581525060016000836000191660001916815260200190815260200160002060008201518160000160006101000a81548173ffffffffffffffffffffffffffffffffffffffff021916908373ffffffffffffffffffffffffffffffffffffffff16021790555060208201518160010160006101000a81548173ffffffffffffffffffffffffffffffffffffffff021916908373ffffffffffffffffffffffffffffffffffffffff16021790555060408201518160020160006101000a81548173ffffffffffffffffffffffffffffffffffffffff021916908373ffffffffffffffffffffffffffffffffffffffff160217905550606082015181600301556080820151816004015560a08201518160050160006101000a81548160ff021916908315150217905550905050848773ffffffffffffffffffffffffffffffffffffffff163373ffffffffffffffffffffffffffffffffffffffff167f7e78d34ca3a2da9cb000c5e6429bf81e5882ed468f9ecb01286141a485cf078f8934604051808373ffffffffffffffffffffffffffffffffffffffff1673ffffffffffffffffffffffffffffffffffffffff1681526020018281526020019250505060405180910390a460019350505050949350505050565b60008060009054906101000a900473ffffffffffffffffffffffffffffffffffffffff1673ffffffffffffffffffffffffffffffffffffffff163373ffffffffffffffffffffffffffffffffffffffff161415156108e957600080fd5b7f7f4d6aa4949e2b9a4b6f2e8d032e8e289b4ce5fe924db2d9e18e92d2edb955c560405160405180910390a160008060146101000a81548160ff02191690831515021790555090565b600060149054906101000a900460ff1681565b600080600060149054906101000a900460ff16151561096357600080fd5b600073ffffffffffffffffffffffffffffffffffffffff163373ffffffffffffffffffffffffffffffffffffffff161415151561099f57600080fd5b600073ffffffffffffffffffffffffffffffffffffffff168373ffffffffffffffffffffffffffffffffffffffff16141515156109db57600080fd5b6001600086866040518083805190602001908083835b602083101515610a1657805182526020820191506020810190506020830392506109f1565b6001836020036101000a0380198251168184511680821785525050505050509050018273ffffffffffffffffffffffffffffffffffffffff1673ffffffffffffffffffffffffffffffffffffffff166c0100000000000000000000000002815260140192505050604051809103902087866040518083805190602001908083835b602083101515610abc5780518252602082019150602081019050602083039250610a97565b6001836020036101000a0380198251168184511680821785525050505050509050018273ffffffffffffffffffffffffffffffffffffffff1673ffffffffffffffffffffffffffffffffffffffff166c01000000000000000000000000028152601401925050506040518091039020604051808360001916600019168152602001826000191660001916815260200192505050604051809103902060001916600019168152602001908152602001600020905060008160030154111515610b8257600080fd5b8060050160009054906101000a900460ff16151515610ba057600080fd5b3373ffffffffffffffffffffffffffffffffffffffff168160000160009054906101000a900473ffffffffffffffffffffffffffffffffffffffff1673ffffffffffffffffffffffffffffffffffffffff16141515610bfe57600080fd5b8273ffffffffffffffffffffffffffffffffffffffff168160020160009054906101000a900473ffffffffffffffffffffffffffffffffffffffff1673ffffffffffffffffffffffffffffffffffffffff16141515610c5c57600080fd5b438160040154111515610c6e57600080fd5b60018160050160006101000a81548160ff0219169083151502179055508373ffffffffffffffffffffffffffffffffffffffff163373ffffffffffffffffffffffffffffffffffffffff167f107ec3d37fd9dee339940a2c513048ae704cb0ce6cadc36bcb6f129c3450f057858460030154604051808373ffffffffffffffffffffffffffffffffffffffff1673ffffffffffffffffffffffffffffffffffffffff1681526020018281526020019250505060405180910390a33373ffffffffffffffffffffffffffffffffffffffff166108fc82600301549081150290604051600060405180830381858888f193505050501515610d6c57600080fd5b509392505050565b60008060149054906101000a900460ff161515610d9057600080fd5b6000809054906101000a900473ffffffffffffffffffffffffffffffffffffffff1673ffffffffffffffffffffffffffffffffffffffff163373ffffffffffffffffffffffffffffffffffffffff16141515610deb57600080fd5b7f777ecb744cfc69794c3985ebff0496449aafc907c556f1d4003201beb364e80f60405160405180910390a160008060146101000a81548160ff02191690831515021790555090565b600080600060149054906101000a900460ff161515610e5257600080fd5b6000602060ff1614151515610e6657600080fd5b6000602060ff1614151515610e7a57600080fd5b600160008585604051808360001916600019168152602001826000191660001916815260200192505050604051809103902060001916600019168152602001908152602001600020905060008160030154111515610ed757600080fd5b3373ffffffffffffffffffffffffffffffffffffffff168160020160009054906101000a900473ffffffffffffffffffffffffffffffffffffffff1673ffffffffffffffffffffffffffffffffffffffff16141515610f3557600080fd5b3373ffffffffffffffffffffffffffffffffffffffff168160010160009054906101000a900473ffffffffffffffffffffffffffffffffffffffff1673ffffffffffffffffffffffffffffffffffffffff168260000160009054906101000a900473ffffffffffffffffffffffffffffffffffffffff1673ffffffffffffffffffffffffffffffffffffffff167f1cea8a8f8850e5923d6299d9e818ce0c0ed19bb3b56633b7fe5536c45c4b84c884600301546040518082815260200191505060405180910390a43373ffffffffffffffffffffffffffffffffffffffff166108fc82600301549081150290604051600060405180830381858888f19350505050151561104157600080fd5b600191505092915050565b6000809054906101000a900473ffffffffffffffffffffffffffffffffffffffff1681565b60016020528060005260406000206000915090508060000160009054906101000a900473ffffffffffffffffffffffffffffffffffffffff16908060010160009054906101000a900473ffffffffffffffffffffffffffffffffffffffff16908060020160009054906101000a900473ffffffffffffffffffffffffffffffffffffffff16908060030154908060040154908060050160009054906101000a900460ff169050865600a165627a7a72305820155cc3d9bdb0b9723defa213b8f7984ee56bceaeeba0b32bf7bd611652c1f3a30029",
  "source": "pragma solidity ^ 0.4.17;\n\ncontract Remittance {\n\n  uint constant deadLineLimit = 999999;\n\n  address public owner;\n  bool public isRunning;\n\n  struct RemittanceContract {\n    address contractOwner;\n    address recipient;\n    address exchage;\n    uint amount;\n    uint endTime;\n    bool claimed;\n  }\n\n  mapping(bytes32 => RemittanceContract) public remittances;\n\n  event LogContractCreated(address indexed contractOwner,\n                           address indexed recipient, address exchage,\n                           uint indexed deadline, uint amount);\n  event LogClaimed(address indexed contractOwner,address indexed recipient, address indexed exchage, uint amount);                         \n  event LogReclaimed(address indexed contractOwner,address indexed recipient, address exchage, uint amount);\n  event LogPaused();\n  event LogResumed();\n\n  function Remittance() public {\n    owner = msg.sender;\n    isRunning = false;\n  }\n\n  modifier onlyIfRunning {\n    require(isRunning);\n    _;\n  }\n\n  function createContract(string _puzzle, address _recipient, address _exchange,\n                          uint _deadline) public onlyIfRunning payable\n  returns(bool) {\n    require(msg.value > 0);\n    require(_recipient != address(0x00));\n    require(_exchange != address(0x00));\n    require(_deadline <= deadLineLimit);\n\n    bytes32 contractOwnerPassword = keccak256(_puzzle, _recipient);\n    bytes32 exchagePassword = keccak256(_puzzle, _exchange);\n    bytes32 contrackKey =\n        keccak256(contractOwnerPassword, exchagePassword);\n\n    remittances[contrackKey] = RemittanceContract(\n        msg.sender, _recipient, _exchange, msg.value, _deadline + block.number, false);\n\n    LogContractCreated(msg.sender, _recipient, _exchange, _deadline, msg.value);\n    return true;\n  }\n\n  function claim(bytes32 _recipienPassword, bytes32 _exchangePassword) public onlyIfRunning returns(bool) {\n  require(_recipienPassword.length != 0);\n  require( _exchangePassword.length != 0);\n  RemittanceContract storage remittanceContract = remittances[keccak256(_recipienPassword , _exchangePassword)];\n  require(remittanceContract.amount > 0); // Check reclaim contract is valid\n  require(remittanceContract.exchage == msg.sender);\n  LogClaimed(remittanceContract.contractOwner, remittanceContract.recipient, msg.sender,  remittanceContract.amount);\n  msg.sender.transfer(remittanceContract.amount);\n  return true;\n  }\n\n  function reclaim(string _puzzle, address _recipient, address _exchange) public onlyIfRunning\n  returns(bool) {\n    require(msg.sender != address(0x00));\n    require(_exchange != address(0x00));\n    RemittanceContract storage remittanceContract = remittances[keccak256(keccak256(_puzzle,_recipient) , keccak256(_puzzle, _exchange))];\n    require(remittanceContract.amount > 0); // Check reclaim contract is valid\n    require(!remittanceContract.claimed);\n    require(remittanceContract.contractOwner == msg.sender);\n    require(remittanceContract.exchage == _exchange);\n    require(remittanceContract.endTime > block.number);\n    remittanceContract.claimed = true;\n    LogReclaimed(msg.sender, _recipient, _exchange,  remittanceContract.amount);\n    msg.sender.transfer(remittanceContract.amount);\n  }\n\n  function pause() public onlyIfRunning returns(bool) {\n    require(msg.sender == owner);\n    LogPaused();\n    isRunning = false;\n  }\n\n  function resume() public returns(bool) {\n    require(msg.sender == owner);\n    LogResumed();\n    isRunning = false;\n  }\n\n  function() public {}\n}",
  "sourcePath": "/home/vibhor/ChainSkills/b9labs/Projects/Remittance/contracts/Remittance.sol",
  "compiler": {
    "name": "solc",
    "version": "0.4.21+commit.dfe3193c.Emscripten.clang"
  },
  "schemaVersion": "2.0.0",
  "updatedAt": "2018-04-18T04:06:31.074Z"
}